{
  "contractName": "MarketContract",
  "abi": [
    {
      "anonymous": false,
      "inputs": [
        {
          "indexed": false,
          "internalType": "uint256",
          "name": "id",
          "type": "uint256"
        },
        {
          "indexed": false,
          "internalType": "uint256",
          "name": "tokenId",
          "type": "uint256"
        },
        {
          "indexed": false,
          "internalType": "address",
          "name": "tokenAddress",
          "type": "address"
        },
        {
          "indexed": false,
          "internalType": "uint256",
          "name": "askingPrice",
          "type": "uint256"
        },
        {
          "indexed": false,
          "internalType": "address",
          "name": "seller",
          "type": "address"
        }
      ],
      "name": "itemAdded",
      "type": "event"
    },
    {
      "anonymous": false,
      "inputs": [
        {
          "indexed": false,
          "internalType": "uint256",
          "name": "id",
          "type": "uint256"
        },
        {
          "indexed": false,
          "internalType": "address",
          "name": "buyer",
          "type": "address"
        },
        {
          "indexed": false,
          "internalType": "uint256",
          "name": "askingPrice",
          "type": "uint256"
        },
        {
          "indexed": false,
          "internalType": "address",
          "name": "seller",
          "type": "address"
        },
        {
          "indexed": false,
          "internalType": "uint256",
          "name": "tokenId",
          "type": "uint256"
        },
        {
          "indexed": false,
          "internalType": "address",
          "name": "tokenAddress",
          "type": "address"
        }
      ],
      "name": "itemSold",
      "type": "event"
    },
    {
      "inputs": [
        {
          "internalType": "uint256",
          "name": "",
          "type": "uint256"
        }
      ],
      "name": "ItemsForSale",
      "outputs": [
        {
          "internalType": "uint256",
          "name": "id",
          "type": "uint256"
        },
        {
          "internalType": "address",
          "name": "tokenAddress",
          "type": "address"
        },
        {
          "internalType": "uint256",
          "name": "tokenId",
          "type": "uint256"
        },
        {
          "internalType": "address payable",
          "name": "seller",
          "type": "address"
        },
        {
          "internalType": "uint256",
          "name": "askingPrice",
          "type": "uint256"
        },
        {
          "internalType": "bool",
          "name": "isSold",
          "type": "bool"
        }
      ],
      "stateMutability": "view",
      "type": "function",
      "constant": true
    },
    {
      "inputs": [
        {
          "internalType": "uint256",
          "name": "tokenId",
          "type": "uint256"
        },
        {
          "internalType": "address",
          "name": "tokenAddress",
          "type": "address"
        },
        {
          "internalType": "uint256",
          "name": "askingPrice",
          "type": "uint256"
        }
      ],
      "name": "addItemtoMarket",
      "outputs": [
        {
          "internalType": "uint256",
          "name": "",
          "type": "uint256"
        }
      ],
      "stateMutability": "nonpayable",
      "type": "function"
    },
    {
      "inputs": [
        {
          "internalType": "uint256",
          "name": "id",
          "type": "uint256"
        }
      ],
      "name": "buyItem",
      "outputs": [],
      "stateMutability": "payable",
      "type": "function",
      "payable": true
    },
    {
      "inputs": [],
      "name": "getitems",
      "outputs": [
        {
          "internalType": "uint256[]",
          "name": "",
          "type": "uint256[]"
        },
        {
          "internalType": "uint256[]",
          "name": "",
          "type": "uint256[]"
        },
        {
          "internalType": "address[]",
          "name": "",
          "type": "address[]"
        },
        {
          "internalType": "bool[]",
          "name": "",
          "type": "bool[]"
        }
      ],
      "stateMutability": "nonpayable",
      "type": "function"
    }
  ],
  "bytecode": "0x608060405234801561001057600080fd5b5061123c806100206000396000f3fe60806040526004361061003f5760003560e01c80635a5de04e146100445780636fb3804f146100bd578063e7fb74c714610201578063ed3b8cd61461022f575b600080fd5b34801561005057600080fd5b506100a76004803603606081101561006757600080fd5b8101908080359060200190929190803573ffffffffffffffffffffffffffffffffffffffff169060200190929190803590602001909291905050506102cf565b6040518082815260200191505060405180910390f35b3480156100c957600080fd5b506100d26106f0565b6040518080602001806020018060200180602001858103855289818151815260200191508051906020019060200280838360005b83811015610121578082015181840152602081019050610106565b50505050905001858103845288818151815260200191508051906020019060200280838360005b83811015610163578082015181840152602081019050610148565b50505050905001858103835287818151815260200191508051906020019060200280838360005b838110156101a557808201518184015260208101905061018a565b50505050905001858103825286818151815260200191508051906020019060200280838360005b838110156101e75780820151818401526020810190506101cc565b505050509050019850505050505050505060405180910390f35b61022d6004803603602081101561021757600080fd5b81019080803590602001909291905050506109a7565b005b34801561023b57600080fd5b506102686004803603602081101561025257600080fd5b8101908080359060200190929190505050611170565b604051808781526020018673ffffffffffffffffffffffffffffffffffffffff1681526020018581526020018473ffffffffffffffffffffffffffffffffffffffff1681526020018381526020018215158152602001965050505050505060405180910390f35b6000828460008290503373ffffffffffffffffffffffffffffffffffffffff168173ffffffffffffffffffffffffffffffffffffffff16636352211e846040518263ffffffff1660e01b81526004018082815260200191505060206040518083038186803b15801561034057600080fd5b505afa158015610354573d6000803e3d6000fd5b505050506040513d602081101561036a57600080fd5b810190808051906020019092919050505073ffffffffffffffffffffffffffffffffffffffff161461039b57600080fd5b60001515600160008873ffffffffffffffffffffffffffffffffffffffff1673ffffffffffffffffffffffffffffffffffffffff168152602001908152602001600020600089815260200190815260200160002060009054906101000a900460ff16151514610472576040517f08c379a000000000000000000000000000000000000000000000000000000000815260040180806020018281038252601b8152602001807f6974656d20697320616c726561647920757020666f722073616c65000000000081525060200191505060405180910390fd5b60008080549050905060006040518060c001604052808381526020018973ffffffffffffffffffffffffffffffffffffffff1681526020018a81526020013373ffffffffffffffffffffffffffffffffffffffff1681526020018881526020016000151581525090806001815401808255809150506001900390600052602060002090600602016000909190919091506000820151816000015560208201518160010160006101000a81548173ffffffffffffffffffffffffffffffffffffffff021916908373ffffffffffffffffffffffffffffffffffffffff1602179055506040820151816002015560608201518160030160006101000a81548173ffffffffffffffffffffffffffffffffffffffff021916908373ffffffffffffffffffffffffffffffffffffffff1602179055506080820151816004015560a08201518160050160006101000a81548160ff021916908315150217905550505060018060008973ffffffffffffffffffffffffffffffffffffffff1673ffffffffffffffffffffffffffffffffffffffff16815260200190815260200160002060008a815260200190815260200160002060006101000a81548160ff021916908315150217905550806000828154811061064657fe5b9060005260206000209060060201600001541461065f57fe5b7f42982e457d0a397b075db754e4e099e3a77a371779574db03bc33b78173c7ff48189898933604051808681526020018581526020018473ffffffffffffffffffffffffffffffffffffffff1681526020018381526020018273ffffffffffffffffffffffffffffffffffffffff1681526020019550505050505060405180910390a1809450505050509392505050565b606080606080606060008054905067ffffffffffffffff8111801561071457600080fd5b506040519080825280602002602001820160405280156107435781602001602082028036833780820191505090505b509050606060008054905067ffffffffffffffff8111801561076457600080fd5b506040519080825280602002602001820160405280156107935781602001602082028036833780820191505090505b509050606060008054905067ffffffffffffffff811180156107b457600080fd5b506040519080825280602002602001820160405280156107e35781602001602082028036833780820191505090505b509050606060008054905067ffffffffffffffff8111801561080457600080fd5b506040519080825280602002602001820160405280156108335781602001602082028036833780820191505090505b50905060005b600080549050811015610990576000818154811061085357fe5b90600052602060002090600602016000015485828151811061087157fe5b6020026020010181815250506000818154811061088a57fe5b9060005260206000209060060201600201548482815181106108a857fe5b602002602001018181525050600081815481106108c157fe5b906000526020600020906006020160030160009054906101000a900473ffffffffffffffffffffffffffffffffffffffff168382815181106108ff57fe5b602002602001019073ffffffffffffffffffffffffffffffffffffffff16908173ffffffffffffffffffffffffffffffffffffffff16815250506000818154811061094657fe5b906000526020600020906006020160050160009054906101000a900460ff1682828151811061097157fe5b6020026020010190151590811515815250508080600101915050610839565b508383838397509750975097505050505090919293565b80600080549050811080156109d9575080600082815481106109c557fe5b906000526020600020906006020160000154145b610a4b576040517f08c379a00000000000000000000000000000000000000000000000000000000081526004018080602001828103825260138152602001807f636f756c64206e6f742066696e64206974656d0000000000000000000000000081525060200191505060405180910390fd5b816000151560008281548110610a5d57fe5b906000526020600020906006020160050160009054906101000a900460ff16151514610af1576040517f08c379a00000000000000000000000000000000000000000000000000000000081526004018080602001828103825260138152602001807f6974656d20697320616c7265647920736f6c640000000000000000000000000081525060200191505060405180910390fd5b60008381548110610afe57fe5b906000526020600020906006020160010160009054906101000a900473ffffffffffffffffffffffffffffffffffffffff1660008481548110610b3d57fe5b906000526020600020906006020160030160009054906101000a900473ffffffffffffffffffffffffffffffffffffffff166000829050600115158173ffffffffffffffffffffffffffffffffffffffff1663e985e9c584306040518363ffffffff1660e01b8152600401808373ffffffffffffffffffffffffffffffffffffffff1681526020018273ffffffffffffffffffffffffffffffffffffffff1681526020019250505060206040518083038186803b158015610bfd57600080fd5b505afa158015610c11573d6000803e3d6000fd5b505050506040513d6020811015610c2757600080fd5b8101908080519060200190929190505050151514610c4457600080fd5b60008681548110610c5157fe5b906000526020600020906006020160040154341015610cd8576040517f08c379a00000000000000000000000000000000000000000000000000000000081526004018080602001828103825260158152602001807f4e6f7420656e6f7567682066756e64732073656e64000000000000000000000081525060200191505060405180910390fd5b60008681548110610ce557fe5b906000526020600020906006020160030160009054906101000a900473ffffffffffffffffffffffffffffffffffffffff1673ffffffffffffffffffffffffffffffffffffffff163373ffffffffffffffffffffffffffffffffffffffff161415610d4f57600080fd5b600160008781548110610d5e57fe5b906000526020600020906006020160050160006101000a81548160ff021916908315150217905550600060016000808981548110610d9857fe5b906000526020600020906006020160010160009054906101000a900473ffffffffffffffffffffffffffffffffffffffff1673ffffffffffffffffffffffffffffffffffffffff1673ffffffffffffffffffffffffffffffffffffffff1681526020019081526020016000206000808981548110610e1257fe5b906000526020600020906006020160020154815260200190815260200160002060006101000a81548160ff02191690831515021790555060008681548110610e5657fe5b906000526020600020906006020160010160009054906101000a900473ffffffffffffffffffffffffffffffffffffffff1673ffffffffffffffffffffffffffffffffffffffff166342842e0e60008881548110610eb057fe5b906000526020600020906006020160030160009054906101000a900473ffffffffffffffffffffffffffffffffffffffff163360008a81548110610ef057fe5b9060005260206000209060060201600201546040518463ffffffff1660e01b8152600401808473ffffffffffffffffffffffffffffffffffffffff1681526020018373ffffffffffffffffffffffffffffffffffffffff1681526020018281526020019350505050600060405180830381600087803b158015610f7257600080fd5b505af1158015610f86573d6000803e3d6000fd5b5050505060008681548110610f9757fe5b906000526020600020906006020160030160009054906101000a900473ffffffffffffffffffffffffffffffffffffffff1673ffffffffffffffffffffffffffffffffffffffff166108fc349081150290604051600060405180830381858888f1935050505015801561100e573d6000803e3d6000fd5b507ff79584f5c1f384a1302c03d4b8f7261632382a85c7a80831186e80eeab5d155d86336000898154811061103f57fe5b90600052602060002090600602016004015460008a8154811061105e57fe5b906000526020600020906006020160030160009054906101000a900473ffffffffffffffffffffffffffffffffffffffff1660008b8154811061109d57fe5b90600052602060002090600602016002015460008c815481106110bc57fe5b906000526020600020906006020160010160009054906101000a900473ffffffffffffffffffffffffffffffffffffffff16604051808781526020018673ffffffffffffffffffffffffffffffffffffffff1681526020018581526020018473ffffffffffffffffffffffffffffffffffffffff1681526020018381526020018273ffffffffffffffffffffffffffffffffffffffff168152602001965050505050505060405180910390a1505050505050565b6000818154811061117d57fe5b90600052602060002090600602016000915090508060000154908060010160009054906101000a900473ffffffffffffffffffffffffffffffffffffffff16908060020154908060030160009054906101000a900473ffffffffffffffffffffffffffffffffffffffff16908060040154908060050160009054906101000a900460ff1690508656fea26469706673582212200b5649271ba5f4598855cfe581e4909c73577dc238acf3e6ca98a610731a6a4a64736f6c634300060c0033",
  "immutableReferences": {},
  "source": "pragma solidity ^0.6.0;\r\n\r\nimport \"@openzeppelin/contracts/token/ERC721/IERC721.sol\";\r\n\r\ncontract MarketContract{\r\n    struct AuctionItem{\r\n        uint256 id;\r\n        address tokenAddress;\r\n        uint256 tokenId;\r\n        address payable seller;\r\n        uint256 askingPrice;\r\n        bool isSold;\r\n\r\n    }\r\n    AuctionItem[] public ItemsForSale;\r\n    mapping(address=>mapping(uint256 =>bool)) activeItems;\r\n\r\n    event itemAdded(uint256 id,uint256 tokenId,address tokenAddress, uint256 askingPrice,address seller);\r\n\r\n    event itemSold(uint256 id,address buyer,uint256 askingPrice,address seller,uint256 tokenId,address tokenAddress);\r\n\r\n    modifier OnlyItemOwner(address tokenAddress,uint256 tokenId){\r\n        IERC721 tokenContract=IERC721(tokenAddress);\r\n        require(tokenContract.ownerOf(tokenId)==msg.sender);\r\n        _;\r\n    }\r\n\r\n    modifier HasTransferApproval(address tokenAddress,uint256 tokenId){\r\n        IERC721 tokenContract=IERC721(tokenAddress);\r\n        require(tokenContract.isApprovedForAll(msg.sender,address(this))==true);\r\n\r\n        _;\r\n    }\r\n\r\n\r\n     modifier HassellApproval(address tokenAddress,address seller){\r\n        IERC721 tokenContract=IERC721(tokenAddress);\r\n        require(tokenContract.isApprovedForAll(seller,address(this))==true);\r\n\r\n        _;\r\n    }\r\n\r\n    modifier itemExists(uint256 id){\r\n        require(id<ItemsForSale.length && ItemsForSale[id].id==id,\"could not find item\");\r\n        _;\r\n    }\r\n\r\n\r\n    modifier isForSale(uint256 id){\r\n        require( ItemsForSale[id].isSold==false,\"item is alredy sold\");\r\n        _;\r\n    }\r\n\r\n    function addItemtoMarket(uint256 tokenId,address tokenAddress,uint256 askingPrice) OnlyItemOwner(tokenAddress,tokenId)  external returns(uint256){\r\n\r\n        require(activeItems[tokenAddress][tokenId]==false,\"item is already up for sale\");\r\n\r\n        uint256 newItemid=ItemsForSale.length;\r\n        ItemsForSale.push(AuctionItem(newItemid,tokenAddress,tokenId,payable(msg.sender),askingPrice,false));\r\n        activeItems[tokenAddress][tokenId]=true;\r\n\r\n        assert(ItemsForSale[newItemid].id==newItemid);\r\n        emit itemAdded(newItemid, tokenId,tokenAddress,askingPrice,msg.sender);\r\n        return newItemid;\r\n\r\n    }\r\n\r\n    function buyItem(uint256 id) payable external itemExists(id) isForSale(id) HassellApproval(ItemsForSale[id].tokenAddress,ItemsForSale[id].seller) {\r\n        require(msg.value>=ItemsForSale[id].askingPrice,\"Not enough funds send\");\r\n        require(msg.sender!=ItemsForSale[id].seller);\r\n\r\n        ItemsForSale[id].isSold=true;\r\n        activeItems[ItemsForSale[id].tokenAddress][ItemsForSale[id].tokenId]=false;\r\n        IERC721(ItemsForSale[id].tokenAddress).safeTransferFrom(ItemsForSale[id].seller, msg.sender, ItemsForSale[id].tokenId);\r\n        ItemsForSale[id].seller.transfer(msg.value);\r\n        emit itemSold(id, msg.sender, ItemsForSale[id].askingPrice,ItemsForSale[id].seller,ItemsForSale[id].tokenId,ItemsForSale[id].tokenAddress);\r\n\r\n    }\r\n\r\n\r\n    function getitems() public returns( uint256[] memory, uint256[] memory, address[] memory, bool[] memory){\r\n\r\n        uint256[] memory id=new uint256[](ItemsForSale.length);\r\n\r\n        uint256[] memory tokid=new uint256[](ItemsForSale.length);\r\n\r\n        address[] memory uaddress=new address[](ItemsForSale.length);\r\n\r\n        bool[] memory sold=new bool[](ItemsForSale.length);\r\n\r\n\r\n        for(uint i=0;i<ItemsForSale.length;i++){\r\n\r\n            id[i]=ItemsForSale[i].id;\r\n            tokid[i]=ItemsForSale[i].tokenId;\r\n            uaddress[i]=ItemsForSale[i].seller;\r\n            sold[i]=ItemsForSale[i].isSold;\r\n\r\n        }\r\n\r\n        return (id,tokid,uaddress,sold);\r\n\r\n\r\n\r\n\r\n\r\n\r\n        \r\n\r\n    }\r\n\r\n\r\n}",
  "sourcePath": "D:/Etherium/NFT/nft_marketplace/client/src/contracts/Marketplace.sol",
  "compiler": {
    "name": "solc",
    "version": "0.6.12+commit.27d51765.Emscripten.clang"
  },
  "schemaVersion": "3.4.3",
  "updatedAt": "2021-11-05T07:18:34.838Z",
  "networkType": "ethereum",
  "devdoc": {
    "kind": "dev",
    "methods": {},
    "version": 1
  },
  "userdoc": {
    "kind": "user",
    "methods": {},
    "version": 1
  }
}