{
  "contractName": "Meme",
  "abi": [
    {
      "inputs": [
        {
          "internalType": "string",
          "name": "_memeHash",
          "type": "string"
        }
      ],
      "name": "set",
      "outputs": [],
      "stateMutability": "nonpayable",
      "type": "function"
    },
    {
      "inputs": [],
      "name": "get",
      "outputs": [
        {
          "internalType": "string",
          "name": "",
          "type": "string"
        }
      ],
      "stateMutability": "view",
      "type": "function",
      "constant": true
    }
  ],
  "bytecode": "0x608060405234801561001057600080fd5b50610308806100206000396000f3fe608060405234801561001057600080fd5b50600436106100365760003560e01c80634ed3885e1461003b5780636d4ce63c146100f6575b600080fd5b6100f46004803603602081101561005157600080fd5b810190808035906020019064010000000081111561006e57600080fd5b82018360208201111561008057600080fd5b803590602001918460018302840111640100000000831117156100a257600080fd5b91908080601f016020809104026020016040519081016040528093929190818152602001838380828437600081840152601f19601f820116905080830192505050505050509192919290505050610179565b005b6100fe610193565b6040518080602001828103825283818151815260200191508051906020019080838360005b8381101561013e578082015181840152602081019050610123565b50505050905090810190601f16801561016b5780820380516001836020036101000a031916815260200191505b509250505060405180910390f35b806000908051906020019061018f929190610235565b5050565b606060008054600181600116156101000203166002900480601f01602080910402602001604051908101604052809291908181526020018280546001816001161561010002031660029004801561022b5780601f106102005761010080835404028352916020019161022b565b820191906000526020600020905b81548152906001019060200180831161020e57829003601f168201915b5050505050905090565b828054600181600116156101000203166002900490600052602060002090601f016020900481019282601f1061027657805160ff19168380011785556102a4565b828001600101855582156102a4579182015b828111156102a3578251825591602001919060010190610288565b5b5090506102b191906102b5565b5090565b5b808211156102ce5760008160009055506001016102b6565b509056fea2646970667358221220f53473bb6d8f27a3fac8208cf1d1b1572cea5d9f0414c1f72c3dee101109d10b64736f6c634300060c0033",
  "immutableReferences": {},
  "source": "pragma solidity ^0.6.0;\r\n\r\ncontract Meme {\r\n  string memeHash;\r\n\r\n  function set(string memory _memeHash) public {\r\n    memeHash = _memeHash;\r\n  }\r\n\r\n  function get() public view returns (string memory) {\r\n    return memeHash;\r\n  }\r\n}\r\n",
  "sourcePath": "D:/Etherium/NFT/nft_marketplace/client/src/contracts/Meme.sol",
  "compiler": {
    "name": "solc",
    "version": "0.6.12+commit.27d51765.Emscripten.clang"
  },
  "schemaVersion": "3.3.4",
  "updatedAt": "2021-07-20T15:52:12.518Z",
  "networkType": "ethereum",
  "devdoc": {
    "kind": "dev",
    "methods": {},
    "version": 1
  },
  "userdoc": {
    "kind": "user",
    "methods": {},
    "version": 1
  }
}